:020000040800F2
:10000000800B0020B1110008F5010008F70100087D
:10001000FB010008FF0100080302000800000000C7
:1000200000000000000000000000000007020008BF
:1000300009020008000000000B0200080D02000881
:10004000CB110008CB110008CB110008CB11000820
:10005000CB110008CB110008CB110008CB11000810
:10006000CB110008CB110008CB110008CB11000800
:10007000393D0008CB110008CB110008CB11000856
:10008000D50E0008CB110008CB110008C1080008EC
:10009000D7080008CB110008CB110008CB110008CD
:1000A000CB110008CB110008CB110008CB110008C0
:1000B000CB110008DB3D0008CB110008CB11000874
:1000C000CB110008CB110008CB110008CB110008A0
:1000D000CB11000815050008F50D0008593C000873
:1000E000CB110008CB110008CB110008CB11000880
:1000F000CB110008CF070008CB110008CB11000876
:10010000CB110008CB110008CB110008CB1100085F
:10011000CB110008CB110008CB110008CB1100084F
:10012000CB110008CB110008CB110008CB1100083F
:10013000CB110008CB110008CB110008CB1100082F
:10014000CB110008CB110008CB110008CB1100081F
:10015000CB110008CB110008CB110008CB1100080F
:10016000CB110008CB110008CB110008CB110008FF
:10017000CB110008CB110008CB110008CB110008EF
:10018000CB110008CB110008DFF80CD004F00AF9FD
:1001900000480047C3010008800B002010B54FF451
:1001A000A06001F017F84FF4E13000F062F900F0C0
:1001B00049FF00F0CDFD00F0DDFA10BD0C490870DC
:1001C00070470020FFF7FAFFFFF7E8FF06E000F0B6
:1001D000EAFC18B10120FFF7F1FF00E0F7E700BFEC
:1001E00002E00A2000F01CF9FBE7014800787047A4
:1001F00000000020704700BFFEE700BFFEE700BF21
:10020000FEE700BFFEE77047704770477047000089
:100210000CB50020019000907648006840F48030D2
:100220007449086000BF7348006800F40030009013
:100230000198401C0190009818B90198B0F5A04FA2
:10024000F1D16C48006800F4003010B1012000903A
:1002500001E0002000900098012846D16548403018
:10026000006840F08050634940310860624800688F
:1002700040F44040604908605E48083000685D49CD
:10028000083108600846006840F4004008600846ED
:10029000006840F4A05008605848091F0860081F13
:1002A000006840F08070091F086000BF5148006876
:1002B00000F000700028F9D040F205705049086045
:1002C0004C480830006820F003004A4908310860B3
:1002D0000846006840F00200086000BF454808304A
:1002E000006800F00C000828F8D10CBD10B5454896
:1002F000006840F47000434908603E48006840F0E0
:1003000001003C49086000203A490831086039483A
:1003100000683D490840374908603C48091D0860AD
:10032000081F006820F48020091F08600020314960
:100330000C310860FFF76CFF4FF0006031498039E5
:10034000086010BD70B500200022022300240221A5
:10035000284D08352D6805F00C0020B1042806D082
:10036000082834D107E02A4D2A4E356033E02A4D63
:10037000284E35602FE01F4D2D1D2D68C5F380548C
:100380001C4D2D1D2D6805F03F0154B1224DB5FBCC
:10039000F1F5184E361D3668C6F3881605FB06F2D1
:1003A00009E01B4DB5FBF1F5124E361D3668C6F35C
:1003B000881605FB06F20F4D2D1D2D68C5F301456E
:1003C0006D1C6B00B2FBF3F5124E356003E0104D6F
:1003D000104E356000BF00BF064D08352D68C5F3CF
:1003E00003150E4E705D0B4D2D68C540094E3560EE
:1003F00070BD0000003802400070004019544007F2
:10040000003C024088ED00E0FFFFF6FE10300024C3
:100410000024F4000400002040787D010800002042
:1004200010B5002107E04AF2104200BF131EA2F1EE
:100430000102FBD1491C8142F5D310BD10B500214A
:1004400006E0282200BF131EA2F10102FBD1491CC5
:100450008142F6D310BD000000BF704700BF6F4A55
:10046000128802F04002002AF9D0C2B26B4B9A8087
:10047000704710B588B004460121084601F03EFAE5
:100480000121102001F094FA07220921644801F0AB
:1004900022F807220A21624801F01DF84FF4C060DB
:1004A000069002208DF81C008DF81D0000208DF8AC
:1004B0001E0001208DF81F0006A9594800F080FF9A
:1004C00002940020ADF80C00ADF80E00ADF810005D
:1004D000ADF814000C20ADF8120002A94F4801F04D
:1004E000C8FB01214D4801F04CFC012240F227716C
:1004F0004A4801F0FCFC25208DF8040001208DF80D
:1005000005008DF806008DF8070001A800F067FED1
:1005100008B010BD10B540F22551404801F022FD51
:10052000B0B33E4801F05CFCC4B23E48008800F421
:10053000004000284FD13B48008800F4804060B163
:100540000A2C03D000203749088044E03548008851
:1005500040F40040334908803DE00D2C06D131487D
:10056000008840F480402F49088034E02D480088FE
:10057000C0F30D002C490C542A480088401C29491E
:10058000088008460088C72825DD0020088022E072
:10059000FFE740F22771214801F0E4FCD8B123487D
:1005A00002780078401C214B18702148815C1B4860
:1005B00001F012FC1D4800781E490978884205D1D7
:1005C000002240F22771154801F091FC40F227719A
:1005D000124801F002FD4FF45871104801F0FDFC83
:1005E00010BD10B5044600BF80210C4801F0A4FCEA
:1005F0000028F9D02146094801F0EEFB10BD70B586
:1006000004460D4603E02078FFF7EBFF641C281E2C
:10061000A5F101018DB2F6D170BD000000100140BE
:100620000000024020000020DC0100201900002012
:10063000DC000020180000200146012906D0022914
:1006400006D0032906D0042908D105E045487047A3
:100650004548FCE74548FAE74548F8E700BF002071
:10066000F5E730B505460B4614462846FFF7E4FF8C
:10067000024692ED040A82ED050A92ED030A82ED2C
:10068000040AE01A00EE100AB8EEC00A82ED030A6E
:1006900092ED030AD2ED040A30EE600AD2ED000AB0
:1006A00020EE200AD2ED010A92ED031A00EE810A33
:1006B000D2ED030A92ED041AF0EE001A41EEC10ADF
:1006C00092ED051A70EE810A92ED021A01EE200AEF
:1006D000BDEEC00A10EE100A00B21083B2F9180085
:1006E00030BD70B505460C46012C06D0022C0AD050
:1006F000032C0ED0042C18D111E01C2219492846D5
:1007000003F0E2FB70BD1C221749284603F0DCFB16
:10071000F8E71C221549284603F0D6FBF2E71C2215
:100720001349284603F0D0FBECE700BF00BFE9E720
:1007300000B503461846FFF77FFF0246D2ED001AC8
:1007400071EE801AC2ED001AD2ED011A71EEA01AF4
:10075000C2ED011AD2ED021A71EE811AC2ED021A2F
:1007600000BD000024000020400000205C000020AC
:10077000780000201FB50121080201F008F940F2BD
:10078000E73002905320ADF804000020ADF80600D9
:10079000ADF80C0001A9154802F0A7FB0122114693
:1007A000124803F043F80121104802F027FC2D20E5
:1007B0008DF8000001208DF8010003208DF8020063
:1007C00001208DF80300684600F009FD1FBD10B53B
:1007D0000121064803F041F8012805D10121034811
:1007E00003F04CF800F004F810BD000000200040B9
:1007F0002DE9F047002000F0E1FBA0F5806000EB60
:100800008000400004B2032000F0D8FBC0F58060F7
:1008100000EB8000400005B2022000F0CFFBA0F505
:10082000806000EB8000400006B222462946304638
:1008300000F031FA042000F06CFA8046042000F049
:100840004BFA8146424649460420FFF70AFF044618
:10085000032000F05EFA8046032000F03DFA814656
:10086000424649460320FFF7FCFE0546022000F001
:1008700050FA8046022000F02FFA8146424649464F
:100880000220FFF7EEFE0646012000F042FA804605
:10089000012000F021FA8146424649460120FFF737
:1008A000E0FE074623462A46314600F0BAF9FFF734
:1008B0009CFC012801D100F0AEF8BDE8F0870000F3
:1008C00010B50121F94801F0A1FF18B10121F74845
:1008D00002F037F810BD00B585B00221F34801F0F1
:1008E00095FF00287ED00221F04802F02AF86A46DF
:1008F0000021EE4801F007FE40F2014100988842D5
:100900001ED10120EA4908719DF80C009DF80B10DA
:1009100040EA0120404201B2E64841849DF80E10B1
:100920009DF80D0041EA002000B2E24908849DF8DC
:1009300010109DF80F0041EA002001B2DD488184CB
:1009400040F201210098884214D10120D849087052
:100950009DF80C009DF80B1040EA012000B2D5492B
:1009600008809DF80E109DF80D0041EA002000B2AD
:10097000D049088140F202210098884214D1012018
:10098000CB4948709DF80C009DF80B1040EA0120FF
:1009900000B2C84948809DF80E109DF80D0041EA4C
:1009A000002001B2C348418140F2032100988842EF
:1009B00014D10120BE4988709DF80C009DF80B10E1
:1009C00040EA012000B2BB4988809DF80E109DF8D6
:1009D0000D0041EA002001B2B64881810098B0F5CF
:1009E000017F00E015E014D10120B149C8709DF8E5
:1009F0000C009DF80B1040EA012000B2AD49C88000
:100A00009DF80E109DF80D0041EA002001B2A948A2
:100A1000C18105B000BD08B5A648B0F91600009028
:100A2000A448B0F91430B0F91220B0F910104FF406
:100A3000007000F08AFB08BD70B52DED0C8B9D4851
:100A4000B0F92040B0F92250B0F92460304603F0EC
:100A5000D5FB41EC1C0B9FED980B53EC102B03F0D6
:100A6000ECFA41EC1A0B281903F0C8FB41EC1B0B04
:100A700053EC1A2B03F03AFA41EC190B9FED900B53
:100A800053EC102B03F04BFB41EC180B03F0C7FBAE
:100A900000B288490883304603F0B0FB41EC1D0BDF
:100AA0009FED850B53EC102B03F0C7FA41EC1B0BA9
:100AB000281B03F0A3FB41EC1C0B53EC1B2B03F096
:100AC000B6FA41EC1A0B81F0004141EC190B9FED95
:100AD0007C0B53EC102B03F022FB41EC180B03F0C2
:100AE0009EFB01B273484183304603F087FB41EC23
:100AF0001D0B9FED710B53EC102B03F09EFA41EC94
:100B00001B0B281903F07AFB41EC1C0B53EC1B2B3D
:100B100003F08DFA41EC1A0B81F0004141EC190B06
:100B20009FED670B53EC102B03F0F9FA41EC180B17
:100B300003F075FB01B25F488183304603F05EFB32
:100B400041EC1C0B9FED5C0B53EC102B03F075FA82
:100B500041EC1A0B281B03F051FB41EC1B0B53EC2F
:100B60001A2B03F0C3F941EC190B9FED550B53EC15
:100B7000102B03F0D4FA41EC180B03F050FB01B238
:100B80004C48C183BDEC0C8B70BD0146B1F57A6F4A
:100B900002DD4FF47A60704711F57A6F01DA4A4846
:100BA000F9E70846F7E710B540F6B830FFF738FC2C
:100BB0003F48017945A003F007FC3D48017843A078
:100BC00003F002FC3A48417840A003F0FDFB3848AE
:100BD00081783EA003F0F8FB3548C1783CA003F0D3
:100BE000F3FB33480079012801D0002010BD3048C4
:100BF0000078012801D00020F8E72D48407801282E
:100C000001D00020F2E72A488078012801D0002096
:100C1000ECE72748C078012801D00020E6E7012052
:100C2000E4E730B504460D462248008A204400B26D
:100C3000204908820846408A284401B21D48418262
:100C4000808A104401B21B488182C08A184401B2D4
:100C50001848C1820146B1F91000FFF796FF154907
:100C60000882B1F91200FFF790FF12494882B1F9EA
:100C70001400FFF78AFF0F498882B1F91600FFF7C9
:100C800084FF0C49C88230BD10B50A4C20836183B3
:100C9000A283E38310BD70B504460E461546054891
:100CA000048446848584FFF7C7FE70BD006400405D
:100CB00094000020A40200209DEFA7C64B37D13F2F
:100CC00052B81E85EB51F83F60F0FFFF25642C0001
:100CD00025640D0A000000000146012906D0022902
:100CE00008D003290AD0042910D10BE01748B0F925
:100CF000080070471548B0F90A00FAE71348B0F940
:100D00000C00F6E71148B0F90E00F2E700BF002032
:100D1000EFE70146012906D0022908D003290AD0AD
:100D2000042910D10BE00948B0F9180070470748B2
:100D3000B0F91A00FAE70548B0F91C00F6E70348D5
:100D4000B0F91E00F2E700BF0020EFE7A402002088
:100D500000B587B00121B24800F0D0FD0121480460
:100D600000F015FE07220321AE4800F0B4FBAE48A8
:100D700000F018FF0820059002208DF818000020D0
:100D80008DF81A0003208DF8190000208DF81B0043
:100D900005A9A44800F014FBA44801900020ADF878
:100DA0000800ADF80A004FF48060ADF80C00042094
:100DB000ADF80E000020ADF8100001A99A4800F02F
:100DC00058FF0121984800F0DCFF26208DF8000034
:100DD00001208DF801008DF802008DF803006846AF
:100DE00000F0FDF9012240F225518F4801F07FF813
:100DF00007B000BD00B595B040F225518A4801F01A
:100E0000B1F8002864D0884800F0CCFE0320FFF73A
:100E100007FB0121480500F071FD84480290002085
:100E2000ADF80C00ADF80E004FF48060ADF8100086
:100E30000420ADF812000020ADF8140002A97A4891
:100E400000F017FF0121784800F09BFF01224021AC
:100E5000754801F043F810208DF8040001208DF84A
:100E600005008DF806008DF8070001A800F0B7F91D
:100E70006F4801F0B9FD4FF0006006906A48001D10
:100E800007906C4808900020099012200A900020DA
:100E90000B904FF480600C9000200D900E904FF45A
:100EA00080700F904FF440301090002011901290FD
:100EB0001390149006A95E4801F038FE012210211B
:100EC0005B4801F0FAFE0121594801F069FE00BFBC
:100ED00015B000BD10B55849554801F00BFF00286A
:100EE0006BD05649524801F0D4FE5349504801F0A6
:100EF0002BFF504800784F49497840EA0120C0F361
:100F00000A004F4908804B484078C0104949897809
:100F100040EA4110C0F30A004949488045488078BA
:100F200080114449C97840EA81004249097940EA80
:100F30008120C0F30A00424988803E480079401071
:100F40003C49497940EAC110C0F30A003C49C880D5
:100F50003848407900118008087236484079C0F35B
:100F600001104872334880793249C97940EA01203A
:100F700000B2334948812F48007A2E49497A40EA25
:100F8000012001B22E4881812A48807A2949C97AF4
:100F900040EA012001B22A48C1812648017B284845
:100FA00001742448417B264841742248807B2149B2
:100FB000C97B40EA01202249488210BD014631B177
:100FC000012907D0022908D003290CD108E01C48C8
:100FD000008870471A484088FBE719488088F8E77E
:100FE0001748C088F5E700BF0020F2E70146012955
:100FF00002D0022906D102E01148007A7047104859
:10100000407AFBE700BF0020F8E70D490A310A6883
:1010100002604968416070470948408A7047000093
:10102000010020000000024000440040A0860100B2
:1010300088600240D20200200088002000080020C2
:101040009A00002000B58BB00121084600F056FC44
:101050000121480600F09BFC09220B21524800F0B8
:101060003AFA09220C21504800F035FA4FF4C050EA
:10107000029002208DF80C0002A94B4800F0A0F964
:1010800014208DF8040001208DF805008DF806006D
:101090008DF8070001A800F0A2F813208DF80400D5
:1010A00000208DF8050001208DF806008DF807005E
:1010B00001A800F094F83D4800F09EFF08A801F058
:1010C000BFF800208DF826008DF827008DF8280045
:1010D0008DF829008DF82A0001208DF82B000020C2
:1010E0008DF822008DF8230008208DF824000320BD
:1010F0008DF82500ADF8200008A92C4800F095FFD8
:1011000000208DF81A008DF81B0001208DF81C00BE
:101110000020ADF81000ADF81200ADF81400ADF8E5
:101120001600ADF8180001208DF81D0004A801F08C
:1011300006F8012202211D4801F000FB01221146A0
:101140001A4801F0FBFA0BB000BD2DE9F04186B062
:1011500007460C4615461E46DDF8308001970020F4
:101160008DF80D008DF80C0008208DF80E00200A77
:101170008DF80F008DF81040290A8DF811108DF8A8
:101180001250310A8DF813108DF814604FEA1821AF
:101190008DF815108DF8168001A9044801F0BEF8ED
:1011A00006B0BDE8F081000000000240006400408D
:1011B0000648804706480047FEE7FEE7FEE7FEE7F1
:1011C000FEE7FEE7FEE7FEE7FEE7FEE7ED020008CA
:1011D0008901000832490143324A1160704770B5F5
:1011E000002100230F22C4781CB32E4C246804F481
:1011F000E064C4F5E064C4F30721C1F10404E3B280
:101200000A4144789C40E1B28478144021430C07A1
:10121000210E254C05786155047804F01F05012442
:10122000AC4005786D11AD0005F1E025C5F8004131
:1012300009E0047804F01F050124AC401B4D06783A
:10124000761145F8264070BD194A0A400243154BF5
:101250001B1F1A60704739B1124A121D12680243EF
:10126000104B1B1D1A6006E00E4A121D12688243C5
:101270000C4B1B1D1A607047042808D14FF0E02169
:10128000096941F004014FF0E022116107E04FF0DD
:10129000E021096921F004014FF0E022116170475B
:1012A0000000FA050CED00E000E400E080E100E061
:1012B00080FFFF1F10B504469848844208D10121E1
:1012C000084600F086FB0021012000F082FB76E05A
:1012D0009348844208D10121022000F07AFB0021CA
:1012E000022000F076FB6AE08E48844208D101219A
:1012F000042000F06EFB0021042000F06AFB5EE099
:101300008948844208D10121082000F062FB0021B5
:10131000082000F05EFB52E08448844208D101219D
:10132000102000F056FB0021102000F052FB46E098
:101330007F48844208D10121202000F04AFB00218F
:10134000202000F046FB3AE07A48844208D101218F
:10135000402000F03EFB0021402000F03AFB2EE050
:101360007548844208D10121802000F032FB002121
:10137000802000F02EFB22E07048844208D1012139
:10138000801500F026FB0021A01500F022FB16E0DE
:101390006B48844208D10121401500F01AFB00215E
:1013A000601500F016FB0AE06648844207D101216F
:1013B000001500F00EFB0021201500F00AFB10BD07
:1013C000F0B50A4600210023002400BF3DE00125BE
:1013D00005FA01F3156805EA03049C4234D1056857
:1013E0004F000326BE40B543056015794E00B54059
:1013F0000668354305601579012D02D01579022D57
:1014000016D185684F000326BE40B54385605579E7
:101410004E00B540866835438560456801268E409C
:10142000B5434560456896798E40B6B23543456010
:10143000C5684F000326BE40B543C560D5794E0050
:10144000B540C6683543C560491C1029BFD3F0BDFF
:101450004FF6FF7101600021017141718171C1710D
:10146000704708B54FF480320092009A0A43009208
:10147000009AC261C161009AC261C2690092C269E8
:10148000009208BD0246002013690B400BB10120F9
:1014900000E0002070470146086980B270470246AC
:1014A000002053690B400BB1012000E00020704781
:1014B0000146486980B27047018370474183704795
:1014C0000AB1018300E0418370474161704742697E
:1014D0004A4042617047F0B5002300244D07ED0EED
:1014E00002FA05F3CE1000F1200555F826504E07FC
:1014F000F70E0F26BE40B543CF1000F1200646F888
:101500002750CE1000F1200555F8265045EA030477
:10151000CE1000F1200545F82640F0BD0000024045
:101520000004024000080240000C0240001002408B
:101530000014024000180240001C0240002002403B
:101540000024024000280240F948006840F00100F1
:10155000F74908600020F64908310860F44800683F
:10156000F4490840F2490860F348091D0860F3484F
:10157000EF4984310860F0481038091D0860EC48D4
:10158000006820F48020EA4908600020E8490C3116
:101590000860E7498C31086070470021E44A921CDA
:1015A000117011460870704710B5014600220023E3
:1015B00000204A11012A02D1DD4C236808E0022AEA
:1015C00003D1DB4C7034236802E0D94C74342368B7
:1015D00001F01F02012494401C400CB1012000E0E6
:1015E000002010BD38B5002000900024002500BF69
:1015F0003120FFF7D9FF05460098401C0090009865
:10160000B0F5A04F01D0002DF2D03120FFF7CCFF74
:1016100008B1012400E00024204638BD0146002026
:10162000C34A106820F0F80040EAC100106070471B
:10163000C349086070470021BD4A703211701170B3
:10164000012802D004280AD104E00121B84A7032EE
:10165000117005E00521B64A7032117000E000BF3C
:1016600000BF7047B7490860704770B5049C41EAF5
:1016700082150126C6EB530645EA0645054345EAB1
:101680000465AB4E361D356070BDAD4908667047C8
:10169000820142EA0172A64B84331A607047A8495E
:1016A0008866704710B5830143EA016343EA027319
:1016B0009F4C8834236010BDA14908677047A0493A
:1016C000C864704702460020994B0833186820F020
:1016D000EC6042EA01031843954B083318607047E9
:1016E00002460020924B0833186820F0784042EA06
:1016F000010318438E4B08331860704701460020E1
:101700008B4A0832106820F00300084310607047CD
:1017100087480830006800F00C0070470146002040
:10172000834A0832106820F0F000084310607047C8
:10173000014600207E4A0832106820F4E050084339
:101740001060704701460020794A0832106820F482
:10175000604040EAC10010607047F0B500210022EF
:101760000024022500260223714F08373F6807F046
:101770000C0121B1042905D0082937D105E0724FA9
:10178000076036E0714F076033E0694F3F1D3F68E7
:10179000C7F38056664F3F1D3F6807F03F036EB1A9
:1017A0006A4FB7FBF3F7DFF888C10CF1040CDCF8E3
:1017B00000C0CCF3881C07FB0CF40CE0624FB7FBB5
:1017C000F3F7DFF86CC10CF1040CDCF800C0CCF3CB
:1017D000881C07FB0CF4564F3F1D3F68C7F30147B9
:1017E0007F1C7D00B4FBF5F7076002E0564F0760F1
:1017F00000BF00BF4E4F08373F6807F0F0010909EE
:10180000534F7A5C0768D7404760494F08373F68B5
:1018100007F4E051890A4E4F7A5C4768D7408760E9
:10182000434F08373F6807F46041490B484F7A5CE3
:101830004768D740C760F0BD002100F44072B2F5A0
:10184000407F0AD13A4A0832116821F4F811414A1E
:1018500002401143364A08321160354A703212682C
:10186000C0F30B031A43324B70331A60704735498B
:101870004439086070473349403908607047364939
:101880000860704701460020294A8C32106820F019
:101890001F004A1E1043264A8C32106070470146D2
:1018A0000020234A8C32106820F4F8504A1E40EA87
:1018B00002201F4A8C3210607047014600201C4AEB
:1018C0008C32106820F440100843106070470146C5
:1018D0000020174A8C32106820F440000843106042
:1018E000704701460020124A8C32106820F44030C4
:1018F00008431060704719490860704739B10C4AB5
:101900003032126802430A4B30331A6006E0084A4C
:10191000303212688243064B30331A607047F9B197
:10192000034A343212680243014B34331A601CE01C
:1019300000380240FFFFF6EA10300024003000209B
:1019400000004742800E47420024F40040787D01A9
:10195000AE000020FFFCFF0F5C014742E011474250
:101960008F4A126882438E4B1A60704739B18C4A95
:10197000121D126802438A4B1B1D1A6006E0884A3A
:10198000121D12688243864B1B1D1A60704739B1C5
:10199000834A0C3212680243814B0C331A6006E012
:1019A0007F4A0C32126882437D4B0C331A607047B9
:1019B00039B17B4A103212680243794B10331A60F6
:1019C00006E0774A103212688243754B10331A6072
:1019D000704739B1724A243A12680243704B243B73
:1019E0001A6006E06E4A243A126882436C4B243B2C
:1019F0001A60704739B16A4A203A12680243684B4C
:101A0000203B1A6006E0664A203A12688243644B23
:101A1000203B1A60704739B1614A1C3A1268024390
:101A20005F4B1C3B1A6006E05D4A1C3A1268824319
:101A30005B4B1C3B1A60704739B1594A143A126823
:101A40000243574B143B1A6006E0554A143A126899
:101A50008243534B143B1A60704739B1504A103AD5
:101A6000126802434E4B103B1A6006E04C4A103A93
:101A7000126882434A4B103B1A60704739B1484A9A
:101A80001C3212680243464B1C331A6006E0444A7B
:101A90001C3212688243424B1C331A60704739B1C2
:101AA0003F4A2032126802433D4B20331A6006E061
:101AB0003B4A203212688243394B20331A60704708
:101AC00039B1374A243212680243354B24331A6045
:101AD00006E0334A243212688243314B24331A60C1
:101AE000704739B12E4A2C32126802432C4B2C33EA
:101AF0001A6006E02A4A2C3212688243284B2C33A3
:101B00001A60704739B1264A303212680243244BBA
:101B100030331A6006E0224A303212688243204B8A
:101B200030331A607047012808D11D493C310968DB
:101B300041F008011A4A3C32116007E018493C3173
:101B4000096821F00801164A3C321160704739B12A
:101B5000134A273A12780243114B273B1A7006E0CA
:101B60000F4A273A127882430D4B273B1A70704771
:101B70000B484030006840F08070094940310860EF
:101B8000704701460020064A283A12680A400AB106
:101B9000012000E000207047014926390870704795
:101BA0003438024010B50446FA48844208D1012175
:101BB0001020FFF752FF00211020FFF74EFF57E0E3
:101BC000F548844209D101214804FFF735FF00217F
:101BD0004FF40030FFF730FF4AE0F048844209D16B
:101BE00001218804FFF728FF00214FF48020FFF730
:101BF00023FF3DE0EA48844209D10121C804FFF7F0
:101C00001BFF00214FF40020FFF716FF30E0E548EE
:101C1000844209D101210805FFF70EFF00214FF48E
:101C20008010FFF709FF23E0DF48844208D101213B
:101C30002020FFF712FF00212020FFF70EFF17E002
:101C4000DA48844209D101218807FFF7F5FE002117
:101C50004FF08040FFF7F0FE0AE0D548844207D1FC
:101C600001214005FFF7E8FE00216005FFF7E4FED3
:101C700010BD2DE9FF4705460E460024A14600BFD2
:101C8000A046B08900B100BF2C8A24F44054F088EB
:101C900004432C82AC8941F20C608443B0883189C2
:101CA0000843718908430443AC81AC8A24F440742E
:101CB000B0890443AC826846FFF74FFDB5488542C2
:101CC00002D0B948854202D1DDF80C9001E0DDF880
:101CD0000890A88900F4004040B109EBC90000EB6E
:101CE000091031684900B0FBF1F707E009EBC900C2
:101CF00000EB091031688900B0FBF1F76420B7FBF5
:101D0000F0F004012009642101FB1078A88900F497
:101D1000004040B1322000EBC800B0FBF1F000F011
:101D20000700044308E0322000EB08106421B0FBF8
:101D3000F1F000F00F0004432C81BDE8FF874FF461
:101D40001651016000218180C18001810C214181F7
:101D500000218181704710B502460020108A20F4CE
:101D600070600B884C8823438C882343CC882343A2
:101D70001843108210BD0021018041808180C18004
:101D8000704721B1828942F40052828104E0828945
:101D90004DF6FF731A4082817047028B02F47F4236
:101DA0000283028B0A430283704721B1828942F485
:101DB0000042828103E08289C2F30E028281704771
:101DC00021B1828A42F40062828204E0828A4FF268
:101DD000FF731A4082827047C1F308028280704705
:101DE00001468888C0F308007047028A4FF6F073F6
:101DF0001A400282028A0A430282704721B1828914
:101E000042F00202828104E082894FF6FD731A409B
:101E10008281704782894FF2FF731A4082818289E2
:101E20000A4382817047028A4FF6DF731A400282AA
:101E3000028A0A430282704721B1028A42F4804238
:101E4000028204E0028A4BF6FF731A400282704756
:101E5000818941F001018181704721B1828A42F07C
:101E60000802828204E0828A4FF6F7731A40828267
:101E70007047028BD2B20283028B42EA01220283B4
:101E8000704721B1828A42F02002828204E0828A75
:101E90004FF6DF731A408282704721B1828A42F086
:101EA0001002828204E0828A4FF6EF731A40828227
:101EB0007047828A4FF6FB731A408282828A0A43F5
:101EC0008282704721B1828A42F00202828204E05B
:101ED000828A4FF6FD731A40828270471AB1838A54
:101EE0000B43838202E0838A8B4383827047F0B581
:101EF0000346002400260025002040F66A17B94258
:101F000000D100BF1846C1F3421401F01F0601279B
:101F100007FA06F5012C01D10C3004E0022C01D1A6
:101F2000103000E014301AB107682F43076002E058
:101F30000768AF430760F0BD02460020B1F5007F9F
:101F400000D100BF13880B400BB1012000E000203E
:101F5000704701F40072B2F5007F00D100BFCA43A0
:101F60000280704770B5024600240023002500203F
:101F700040F66A16B14200D100BFC1F3421501F02C
:101F80001F03012606FA03F3012D13D1968933406E
:101F900017E00000001001400044004000480040ED
:101FA000004C004000500040001401400078004008
:101FB000007C0040022D02D1168A334001E0968A4F
:101FC00033400C12012606FA04F41688344013B18B
:101FD0000CB1012000E0002070BD10B500220023EC
:101FE00040F66A14A14200D100BF0A1201249440B5
:101FF000A3B2DC43048010BD10B50446FE48844201
:1020000009D101214806FFF717FD00214FF00070AC
:10201000FFF712FD08E001218806FFF70DFD002102
:102020004FF08060FFF708FD10BD30B5024600207C
:102030000023146824F002041460146844F00104BE
:10204000146000E05B1C546804F001041CB94FF6F6
:10205000FF74A342F6D1546804F001040CB90020C7
:102060006CE08C79012C04D1146844F08004146075
:1020700003E0146824F080041460CC79012C04D1AE
:10208000146844F04004146003E0146824F0400431
:1020900014600C7A012C04D1146844F020041460FC
:1020A00003E0146824F0200414604C7A012C04D15D
:1020B000146844F01004146003E0146824F0100461
:1020C00014608C7A012C04D1146844F00804146064
:1020D00003E0146824F008041460CC7A012C04D1C5
:1020E000146844F00404146003E0146824F0040449
:1020F00014608C78A407CD7844EA05640D7944EA2D
:1021000005444D7944EA05540D886D1E2C43D46175
:10211000146824F001041460002300E05B1C546880
:1021200004F001041CB14FF6FF74A342F6D15468C9
:1021300004F001040CB1002000E0012030BD10B516
:102140000021837A012202FA03F1AC4A126842F0BC
:102150000102AA4B1A60A94A1C3212688A43A74B93
:102160001C331A60027BCAB9A44A0C3212688A4333
:10217000A24B0C331A604288C38842EA03439F4A49
:102180004032847A42F834300288838842EA03433A
:102190009A4A4032847A02EBC4025360027B012ADD
:1021A00019D1964A0C3212680A43944B0C331A60C8
:1021B0004288038842EA0343904A4032847A42F8D4
:1021C0003430C288838842EA03438C4A4032847A9E
:1021D00002EBC4025360C27A3AB9884A121D1268EF
:1021E0008A43864B1B1D1A6006E0844A121D126842
:1021F0000A43824B1B1D1A60028932B97F4A14328E
:1022000012688A437D4B14331A600289012A06D171
:102210007A4A143212680A43784B14331A60427BAC
:10222000012A06D1754A1C3212680A43734B1C33CB
:102230001A60724A126822F00102704B1A6010BDD7
:1022400000218171C171017241728172C17281700C
:10225000C170032101710221417101210180704788
:102260006649096841F00101644A11601146096834
:1022700043F60E729143614A11601146096841EAC2
:10228000002111601146096821F0010111607047B9
:1022900021B1026842F48032026003E0026822F455
:1022A000803202607047E1B1026842F08002026051
:1022B0004FF4C272125842F480734FF4C27213503A
:1022C0004FF4CA72125842F480734FF4CA7213501A
:1022D0004FF4D272125842F480734FF4D2721350FA
:1022E0001BE0026822F0800202604FF4C2721258B2
:1022F00022F480734FF4C27213504FF4CA72125812
:1023000022F480734FF4CA7213504FF4D2721258F1
:1023100022F480734FF4D2721350704710B5024606
:102320000020936803F08063B3F1806F00D110E068
:10233000936803F00063B3F1006F01D1012008E05E
:10234000936803F08053B3F1805F01D1022000E075
:102350000420042879D002F5C07303EB00131B6836
:1023600003F0010402F5C07303EB00131C600B7A49
:102370007BB94B7A0C8843EA445302F5C07404EBF2
:1023800000142468234302F5C07404EB0014236096
:1023900010E00B7A4C6843EAC4034C7A234302F5FD
:1023A000C07404EB00142468234302F5C07404EBEA
:1023B000001423608B7A03F00F038B7202F5C07355
:1023C00003EB00135B6823F00F0402F5C07303EB0B
:1023D00000135C6002F5C07303EB00135B688C7A3A
:1023E000234302F5C07404EB001463608B7B1C066E
:1023F0004B7B44EA034403E0006400400066004075
:102400000B7B44EA0323CC7A234302F5C07404EB2C
:102410000014A3608B7C1C064B7C44EA03440B7CB9
:1024200044EA0323CC7B234302F5C07404EB00147D
:10243000E36002F5C07303EB00131B6843F0010473
:1024400002F5C07303EB00131C6010BD10B502460B
:10245000002321B1012907D002290FD109E090689A
:10246000F94C00EA04030BE09068F84C00EA04031E
:1024700006E09068F64C00EA040301E0002300BF88
:1024800000BFF44C181BA34216D007DC83B16FF0D9
:102490008060184470B1022818D111E0B0F5007FB7
:1024A00010D0ED4C204448B1B0F5003F0ED10BE008
:1024B00002230DE000230BE0002309E0002307E0E6
:1024C000012305E0012303E0012301E0002300BF15
:1024D00000BFD8B210BD21B1012907D002290FD108
:1024E00009E0826842F0800282600AE0826842F479
:1024F0000042826005E0826842F40002826000E0EF
:1025000000BF00BF704710B500F5D87303EB01138F
:102510001B6803F004031372137A53B900F5D873E0
:1025200003EB01131B6840F2FF7404EA535313607A
:1025300009E000F5D87303EB01131B686FF06044EA
:1025400004EAD303536000F5D87303EB01131B684F
:1025500003F00203537200F5D87303EB01135B68B9
:1025600003F00F03937200F5D87303EB01135B685C
:102570001B0AD37400F5D87303EB01139B68D37265
:1025800000F5D87303EB01139B681C0A147300F564
:10259000D87303EB01139B681C0C547300F5D873BC
:1025A00003EB01139B681B0E937300F5D87303EBC9
:1025B0000113DB68D37300F5D87303EB0113DB68F9
:1025C0001C0A147400F5D87303EB0113DB681C0CB0
:1025D000547400F5D87303EB0113DB681B0E93747E
:1025E00021B9C36843F02003C36003E0036943F0EB
:1025F0002003036110BD21B9C26842F02002C2600D
:1026000003E0026942F020020261704702460020A6
:1026100019B9D36803F0030006E0012903D1136957
:1026200003F0030000E00020704710B502460B469F
:1026300000204FF6FF71BBB9146824F0020444F087
:102640000104146000E0491E546804F00304012CE6
:1026500001D00029F7D1546804F00304012C01D003
:10266000002032E0012030E0012B13D1146824F067
:102670000304146000E0491E546804F003040CB124
:102680000029F8D1546804F003040CB100201CE0C8
:1026900001201AE0022B17D1146824F0010444F041
:1026A0000204146000E0491E546804F00304022C84
:1026B00001D00029F7D1546804F00304022C01D0A2
:1026C000002002E0012000E0002010BD01460020B3
:1026D0000A6822F0010242F002020A604A6802F02F
:1026E0000302022A00D10120704701464FF6FF7213
:1026F00000200B6823F002030B6000E0521E4B68C1
:1027000003F00203022B01D1002AF7D14B6803F03A
:102710000203022B00D001207047014600208A6985
:1027200002F070007047014600208A69100E704761
:10273000014600208A69C2F3074070471AB1436915
:102740000B43436102E043698B434361704710B51B
:102750000246002001F4700343B19369C1F31304EE
:1027600023400BB101202DE000202BE001F080730D
:1027700043B15368C1F3130423400BB1012021E09E
:1027800000201FE001F0006343B19368C1F313041C
:1027900023400BB1012015E0002013E001F000738D
:1027A00043B1D368C1F3130423400BB1012009E006
:1027B000002007E01369C1F3130423400BB101208B
:1027C00000E0002010BD0022244B994202D10023DA
:1027D000836111E0C1F3130201F000730BB1C26019
:1027E0000AE001F080630BB1026105E001F00063D3
:1027F0000BB1826000E0426070470246002002EAAE
:1028000001030BB1012000E00020704770B50446C1
:102810000D46002660692840002872D0B5F5807FFB
:1028200069D01DDC082D42D006DC012D2DD0022DF3
:1028300031D0042D7FD134E0102D3ED0202D42D058
:10284000402D78D145E0000003000004000300089B
:1028500000000310000100080001FFF77000F030D5
:10286000B5F5004F61D009DCB5F5007F4AD0B5F56C
:10287000806F4DD0B5F5006F5DD150E0B5F5803F6C
:102880002DD0B5F5003F56D12FE0A0685549FFF790
:10289000B4FF064651E0E0680321FFF7AEFF0646AD
:1028A0004BE0E0680821FFF7A8FF064645E0E06836
:1028B0001021FFF7A2FF06463FE020690321FFF742
:1028C0009CFF064639E020690821FFF796FF06467F
:1028D00033E020691021FFF790FF06462DE0606885
:1028E0000821FFF78AFF064627E060681021FFF7FE
:1028F00084FF064621E0A0690121FFF77EFF06461E
:102900001BE01BE0A0690221FFF777FF064614E0F9
:10291000A0690421FFF771FF06460EE00BE0A069F5
:102920007021FFF76AFF064607E060680421FFF7A1
:1029300064FF064601E0002600BF00E000263046A6
:1029400070BDB1F5007F3AD00FDC202928D006DC1D
:1029500001291CD004291DD0082940D11DE040299F
:1029600021D0B1F5807F3AD126E0B1F5004F31D0CA
:1029700006DCB1F5806F25D0B1F5006F2FD124E0D2
:10298000B1F5803F12D0B1F5003F28D111E0154AD2
:10299000826025E00822C26022E01022C2601FE0AF
:1029A000082202611CE01022026119E00822426044
:1029B00016E01022426013E00422426010E004227C
:1029C00042600DE0042242600AE00022826104229B
:1029D000426005E0002282610422426000E000BF04
:1029E00000BF704701010100016821F00101016091
:1029F0000021016041608160C1600161212141616C
:102A0000DB49884204D13D21D94A103A91608CE0DB
:102A1000D7491831884205D14FF47461D44A103A2D
:102A2000916082E0D2493031884205D14FF474116F
:102A3000CF4A103A916078E0CD494831884205D1BB
:102A40004FF07461CA4A103A91606EE0C849603133
:102A5000884204D1C749C64A103AD16065E0C449EA
:102A60007831884204D1C449C14A103AD1605CE04F
:102A7000BF499031884204D1C049BD4A103AD16063
:102A800053E0BB49A831884205D14FF03D51B84AC7
:102A9000103AD16049E0BA49884204D13D21B84A90
:102AA000083A116041E0B6491831884205D14FF427
:102AB0007461B34A083A116037E0B1493031884255
:102AC00005D14FF47411AE4A083A11602DE0AC49BB
:102AD0004831884205D14FF07461A94A083A116023
:102AE00023E0A7496031884204D1A249A44A121FB9
:102AF00011601AE0A2497831884204D19E49A04A67
:102B0000121F116011E09E499031884204D19B4907
:102B10009B4A121F116008E09949A831884204D1EC
:102B20004FF03D51964A121F1160704710B50022B8
:102B30000268944B1A40CC680B6823434C692343CA
:102B40008C692343CC6923430C6A23434C6A234397
:102B50008C6A23434C6B23438C6B23431A430260E0
:102B6000426922F00702D1E90B3423431A43426140
:102B70000B6943604B6883608B68C36010BD0021A4
:102B8000016041608160C160016141618161C16139
:102B9000016241628162C162016341638163704786
:102BA00021B1026842F00102026003E0026822F0F3
:102BB00001020260704721B1026842F400420260E3
:102BC00003E0026822F400420260704721B102680B
:102BD00042F02002026003E0026822F0200202605C
:102BE0007047416070470146486880B2704722B123
:102BF000036843F40023036003E0036823F4002325
:102C000003600161704721B1026842F480220260D2
:102C100003E0026822F48022026070470AB1016179
:102C200000E0C1607047014600200A6802F40022FB
:102C30000AB1012000E000207047014600200A6828
:102C400002F001020AB1012000E0002070470146B5
:102C500000204A6902F03800704730B503460A4642
:102C600000200024464DAB4202D24149103901E018
:102C70004349103902F000550DB14C6800E00C6872
:102C8000414D2C4004EA02050DB1012000E0002076
:102C900030BD02463A4B9A4202D23548103801E024
:102CA0003748103801F000531BB1374B0B40C3605D
:102CB00002E0354B0B408360704710B501F0800394
:102CC0004BB122B1436943F08003436103E04369A0
:102CD00023F08003436180290BD02AB1036801F0FF
:102CE0001E042343036004E0036801F01E04A343B1
:102CF000036010BD70B50246002000240025204E60
:102D0000B24202D21A4B103B01E01D4B103B1F4E4A
:102D10000E4036B11E2606EAD124166806EA0405DE
:102D200002E0566906F0800501F000560EB15C68BD
:102D300000E01C68144E344004EA010616B10DB1DF
:102D4000012000E0002070BD02460D4B9A4202D2E5
:102D50000748103801E00A48103801F000531BB151
:102D6000094B0B40C36002E0074B0B408360704788
:102D7000106002403D000020400F002000003D2078
:102D8000106402403F801CF07D0F7D0F3C0F3C0F14
:102D900010B50446FE48844208D101210846FEF7DA
:102DA0005CFE00210120FEF758FE9DE0B4F1804F4B
:102DB00008D101210846FEF73FFE00210120FEF761
:102DC0003BFE91E0F348844208D101210220FEF746
:102DD00033FE00210220FEF72FFE85E0EE488442FC
:102DE00008D101210420FEF727FE00210420FEF770
:102DF00023FE79E0E948844208D101210820FEF74A
:102E00001BFE00210820FEF717FE6DE0E448844217
:102E100008D101211020FEF70FFE00211020FEF73F
:102E20000BFE61E0DF48844208D101212020FEF73B
:102E300003FE00212020FEF7FFFD55E0DA48844222
:102E400008D101210220FEF708FE00210220FEF732
:102E500004FE49E0D548844209D101210804FEF767
:102E6000FCFD00214FF48030FEF7F7FD3CE0D04838
:102E7000844209D101214804FEF7EFFD00214FF4FF
:102E80000030FEF7EAFD2FE0CA48844209D1012153
:102E90008804FEF7E2FD00214FF48020FEF7DDFDFF
:102EA00022E0C548844208D101214020FEF7C4FD3C
:102EB00000214020FEF7C0FD16E0C048844208D142
:102EC00001218020FEF7B8FD00218020FEF7B4FD2F
:102ED0000AE0BB48844207D101218015FEF7ACFD12
:102EE0000021A015FEF7A8FD10BD00220288A84B06
:102EF00098420ED0AC4B98420BD0B0F1804F08D026
:102F0000A44B984205D0A44B984202D0A34B9842C0
:102F100004D14FF68F731A404B881A43A04B984246
:102F200007D0A04B984204D04FF6FF431A400B89BC
:102F30001A4302804B68C3620B880385944B984206
:102F400002D0994B984201D18B7A03860123838268
:102F500070474FF0FF3141600021018001814180C5
:102F6000817270470185828270470A46002101887C
:102F70004FF68F73194011430180704741627047CB
:102F8000C16270470146486A70470146088D704724
:102F900021B1028842F00202028004E002884FF66A
:102FA000FD731A400280704721B1028842F004028A
:102FB000028004E002884FF6FB731A4002807047DB
:102FC00021B1028842F08002028004E002884FF6BC
:102FD0007F731A400280704702884FF6F7731A40D9
:102FE000028002880A430280704702884FF6FF433E
:102FF0001A40028002880A430280704721B1028889
:1030000042F00102028004E002884FF6FE731A408B
:103010000280704770B5002400220023058C4FF613
:10302000FE7635400584028C8388048B4FF68F75BD
:103030002C40B51E2C400D882C43751E2A408D89CE
:103040002A434D882A43524DA84202D0564DA842E9
:1030500013D14FF6F7752A40CD892A434FF6FB75F9
:103060002A408D882A434FF6FF652B404FF6FF55C7
:103070002B400D8A2B434D8A2B43838004838D681C
:103080004563028470BD70B5002400220023058CC6
:103090004FF6EF7635400584028C8388048B48F622
:1030A000FF752C404FF6FF452C400D884FF6FF76FC
:1030B00006EA05252C434FF6DF752A408D8906EA7E
:1030C00005152A434D8806EA05152A43304DA842C6
:1030D00002D0354DA8421DD14FF67F752A40CD89CB
:1030E0004FF6FF7606EA05152A434FF6BF752A40CC
:1030F0008D8806EA05152A434FF6FF352B404FF21F
:10310000FF752B400D8A06EA85052B434D8A06EA9A
:1031100085052B43838004838D688563028470BD9D
:1031200070B5002400220023058C4FF6FF66354061
:103130000584028C8388848B4FF68F752C404FF664
:10314000FC752C400D882C434FF6FF552A408D8985
:103150004FF6FF7606EA05252A434D8806EA05253F
:103160002A430B4DA84202D00F4DA84238D14FF24E
:10317000FF752A40CD894FF6FF7606EA05252A43DA
:103180004FF6FF352A408D8806EA05252A4319E0C7
:10319000000001400004004000080040000C004016
:1031A00000100040001400400004014000400140B5
:1031B000004401400048014000180040001C00404D
:1031C000002000404EF6FF752B404DF6FF752B405A
:1031D0000D8A06EA05152B434D8A06EA05152B4391
:1031E000838084838D68C563028470BD70B50022BE
:1031F00000230024058C4EF6FF7635400584038CB1
:103200008488828B48F6FF752A404FF6FF452A4096
:103210000D884FF6FF7606EA05252A434DF6FF7521
:103220002B408D8906EA05352B434D8806EA053586
:103230002B43FE4DA84202D0FD4DA84208D14BF6CB
:10324000FF752C400D8A4FF6FF7606EA85152C4354
:10325000848082838D680564038470BD00210180B1
:103260004180818081608181C1810182418270477A
:1032700070B50346002000241846183001258D4003
:10328000ACB21D8CA5431D8409B108290AD100EBFD
:10329000610005684FF68F76354005600568154377
:1032A00005600FE00D1FC5F34E052844056848F67C
:1032B000FF763540056005684FF6FF7606EA022680
:1032C0003543056070BD4163704781637047C163DA
:1032D0007047016470470A460021018B4FF68F73D7
:1032E00019401143018370470A460021018B48F6BB
:1032F000FF7319404FF6FF7303EA0223194301835A
:1033000070470A460021818B4FF68F731940114395
:10331000818370470A460021818B48F6FF7319406C
:103320004FF6FF7303EA02231943818370470A466D
:103330000021018B4FF6F773194011430183704749
:103340000A460021018B4FF2FF7319404FF6FF73BD
:1033500003EA02231943018370470A460021818B47
:103360004FF6F77319401143818370470A460021D5
:10337000818B4FF2FF7319404FF6FF7303EA02236C
:103380001943818370470A460021018B4FF6FB7376
:1033900019401143018370470A460021018B4FF603
:1033A000FF3319404FF6FF7303EA022319430183E9
:1033B00070470A460021818B4FF6FB731940114379
:1033C000818370470A460021818B4FF6FF331940F5
:1033D0004FF6FF7303EA02231943818370470A46BD
:1033E0000021018B4FF67F73194011430183704711
:1033F0000A460021018BC1F30E014FF6FF7303EA69
:1034000002231943018370470A460021818B4FF63E
:103410007F7319401143818370470A460021818BD5
:10342000C1F30E014FF6FF7303EA022319438183B0
:1034300070470A460021018C4FF6FD731940114375
:10344000018470470A460021018C4FF6F77319403A
:103450001143018470470A460021018C4FF6DF7347
:1034600019404FF6FF7303EA0213194301847047B2
:103470000A460021018C4FF67F7319404FF6FF7307
:1034800003EA02131943018470470A460021018CA4
:103490004FF6FF5319404FF6FF7303EA0223194317
:1034A000018470470A460021018C4FF2FF731940D6
:1034B0004FF6FF7303EA02231943018470470A465B
:1034C0000021018C4DF6FF7319404FF6FF7303EA9C
:1034D000023319430184704730B5002301248C4026
:1034E000A3B2048C9C430484048C02FA01F5ADB2AF
:1034F0002C43048430BD30B5002304248C40A3B297
:10350000048C9C430484048C02FA01F5ADB22C4374
:10351000048430BD828B4FF2FF331A408283828B4A
:103520004FF6FF7303EA01231A4382837047F0B515
:103530000C461546002100220026078C4EF6FF7C23
:1035400007EA0C070784818B028C4FF6FF7707EAA6
:10355000043640F6FF4739404FF6FF7707EA052764
:1035600039434FF6FF7707EA0337394345F6FF77CC
:103570003A4046F480573A4381830284F0BD828BFF
:103580004FF6F3731A408283828B0A43828370471B
:10359000F0B50C461546002100220026078C4FF698
:1035A000FF6C07EA0C070784818B028C4FF6FF77CC
:1035B00007EA04264FF60C7739404FF6FF7707EA03
:1035C00003172F4339434FF2FF573A4046F48077B1
:1035D0003A4381830284F0BD028B4FF2FF331A40DD
:1035E0000283028B4FF6FF7303EA01231A4302831F
:1035F0007047F0B50C461546002100220026078CC6
:103600004FF6EF7C07EA0C070784018B028C4FF61C
:10361000FF7707EA041640F6FF4739404FF6FF7779
:1036200007EA033739434FF6FF7703E00000014014
:103630000004014007EA052739434FF65F773A4017
:1036400046F010073A4301830284F0BD028B4FF627
:10365000F3731A400283028B0A4302837047F0B56A
:103660000C46154600210022068C4FF6FE773E40A0
:103670000684018B028C4FF60C7631407E1C06EAE4
:1036800003162E4331434FF6F576324044F00106DF
:10369000324301830284F0BD70B505460C46208894
:1036A00050B92389A28861882846FFF7D8FFE188AE
:1036B0002846FFF7CBFF25E0208804280AD123897C
:1036C000A28861882846FFF794FFE1882846FFF723
:1036D00083FF17E0208808280AD12389A2886188FF
:1036E0002846FFF755FFE1882846FFF748FF09E025
:1036F0002389A28861882846FFF719FFE1882846B8
:10370000FFF708FF70BD0021018041800121818009
:103710000021C180018170472DE9F04105460C462A
:1037200000260127608808B9022600E00026A0884C
:10373000012801D1022700E001272088A0B92389B0
:10374000A28861882846FFF78AFFE1882846FFF7AC
:103750007DFF23893A4631462846FFF74AFFE18834
:103760002846FFF739FF13E02389A288618828469D
:10377000FFF73FFFE1882846FFF72EFF23893A46EF
:1037800031462846FFF76BFFE1882846FFF75EFFCA
:10379000BDE8F0810146486B70470146886B704771
:1037A0000146C86B70470146086C70470A884B8811
:1037B0001A438B881A43CB881A430B891A434B89C7
:1037C0001A438B891A43A0F84420704700210180D6
:1037D00041808180C180018141818181704731B107
:1037E000B0F8442042F40042A0F8442005E0B0F8CC
:1037F0004420C2F30E02A0F84420704721B1828811
:1038000042F00402828004E082884FF6FB731A4083
:103810008280704721B1828842F00102828004E0F8
:1038200082884FF6FE731A40828070471AB18389EE
:103830000B43838102E083898B43838170478182BC
:10384000704702460020138A0B400BB1012000E0B4
:1038500000207047CA430282704730B502460020FC
:1038600000230024158A05EA0103958905EA01046D
:1038700013B10CB1012000E0002030BDCA43028228
:10388000704741EA0203A0F8483070471AB18389B3
:103890000B43838102E083898B438381704721B18D
:1038A000828842F00802828004E082884FF6F77333
:1038B0001A408280704701894FF6F87211400181E9
:1038C00070470A46002101894FF68F731940114352
:1038D0000181704730B504460D4629462046FFF762
:1038E000F0FF208940F00700208130BD2DE9F04134
:1038F00004460D4616461F46602D06D13B46012262
:1039000031462046FFF775FE05E03B460122314671
:103910002046FFF7A4FE29462046FFF7D2FF208964
:1039200040F007002081BDE8F08130B50C46002151
:103930000189C9B24FF6FF7505EA032515432543F2
:103940002943018130BD2DE9F04105460E46174659
:103950009846002443463A4631462846FFF7E5FF9D
:103960002C894FF6F870044044F007044FF68F702E
:10397000044044F070042C81BDE8F081F0B50446A9
:103980000D4616461F463B46324629462046FFF75F
:10399000CCFF208940F480402081F0BD82884FF622
:1039A0008F731A40828082880A438280704702891E
:1039B0004FF6F8731A40028102890A430281704768
:1039C00002894FF67F731A40028102890A430281FD
:1039D0007047F0B50C4615461E4600210022002314
:1039E0000189028B038C4FF6F877394021434FF65B
:1039F000FC473A4040F201173A434FF6DD773B402F
:103A00004FF6FF7707EA06172F433B4301810283F6
:103A10000384F0BD21B1828842F08002828004E0FC
:103A200082884FF67F731A4082807047A0F850104A
:103A30007047000030B5034605E013F8010B80EA3B
:103A40000204F748025D081EA1F10101F5D11046FC
:103A500030BD70B505460C4600260DB1022C01DCC8
:103A6000002070BD611EFF222846FFF7E3FF0646D7
:103A7000601E285CB04201D10120F2E70020F0E78F
:103A800070B505460C4600260DB1022C00D870BD5D
:103A9000611EFF222846FFF7CDFF0646601E2E540A
:103AA00000BFF4E730B5034613B94FF6FF7030BDE1
:103AB00009E013F8014B82EA0400C0B2D94D35F891
:103AC000100080EA2222081EA1F10101F1D1104666
:103AD000EDE770B505460C4600260DB1022C01D865
:103AE000002070BDA11ED04802882846FFF7DAFFEB
:103AF0000646F1B2A01E285C814206D1601E285CF9
:103B0000B0EB162F01D10120EBE70020E9E770B5FB
:103B100005460C4600260DB1022C00D870BDA11E32
:103B2000C14802882846FFF7BDFF0646A01E2E5456
:103B3000310A601E295400BFF0E71FB501210220A1
:103B4000FDF725FF4FF4FA60029042F2CF00ADF886
:103B500004000020ADF80600ADF80C0001A9B34840
:103B6000FFF7C3F901221146B048FFF75FFE0121BC
:103B7000AE48FFF743FA0121AC48FFF76BFE1D206A
:103B80008DF8000001208DF8010003208DF802005F
:103B900001208DF803006846FDF721FB1FBD00B52D
:103BA00087B00121A248FDF7A9FE01218804FDF795
:103BB000EEFE07220B219F48FDF78DFC07220A210C
:103BC0009C48FDF788FC9C48FDF7ECFF4FF44060F3
:103BD000059002208DF8180000208DF81A000320AF
:103BE0008DF8190000208DF81B0005A99148FDF7FC
:103BF000E7FB4FF4E13001900020ADF80800ADF88C
:103C00000A00ADF80C000C20ADF80E000020ADF855
:103C1000100001A98848FEF72CF801218648FEF71C
:103C2000B0F827208DF8000002208DF801008DF8F3
:103C3000020001208DF803006846FDF7D0FA01224A
:103C400040F225517C48FEF752F9FFF776FF7BA042
:103C500000F0BAFB07B000BD00B595B040F22551A9
:103C60007548FEF77FF9002864D07348FDF79AFF86
:103C70000320FCF7D5FB01214805FDF73FFE4FF47B
:103C8000E13002900020ADF80C00ADF80E00ADF868
:103C900010000C20ADF812000020ADF8140002A9AD
:103CA0006548FDF7E6FF01216348FEF76AF8012247
:103CB00040216148FEF712F90C208DF80400022023
:103CC0008DF805008DF8060001208DF8070001A889
:103CD000FDF785FA6048FEF787FE4FF0006006901A
:103CE0005548001D07905D480890002009904FF44A
:103CF0007A700A9000200B904FF480600C900020A6
:103D00000D900E904FF480700F90000210900020E4
:103D1000119012901390149006A94F48FEF706FFD9
:103D2000012210214C48FEF7C8FF01214A48FEF746
:103D300037FF00BF15B000BD10B549494648FEF732
:103D4000D9FF38B147494448FEF7A3FF44494248E8
:103D5000FEF7FAFF10BD2DE9F04106460C46424839
:103D600000210160017104F1090087B2A5203E49DC
:103D700008700D204870002088703C480078C8709A
:103D80003A480078401C3949087005213648FFF749
:103D900077FE00203449487101208871224631465F
:103DA0003148C01D00F090F804F109012E48FFF7DA
:103DB000AEFE00250CE02C48415D2D48FEF70CF8C6
:103DC00000BF40212A48FEF7B7F80128F9D16D1C41
:103DD000BD42F0DBBDE8F081704710B5012113480A
:103DE000FFF73BFD012812D101211048FFF746FDE6
:103DF00001210E48FFF72EFDFFF7EEFF0D221D49B2
:103E00001D4800F061F80D211B48FFF7A4FF10BD0D
:103E1000012833D0022835D003283BD136E00000FA
:103E20005D4500085E460008D60000200004004002
:103E30000200200000040240004800404A75646708
:103E4000655F496E69743A204163636F6D706C6998
:103E5000736865640D0A000028600240EC020020CF
:103E6000008800100008001019070020D80000206A
:103E700000440040FC0600200C070020114981EDA1
:103E8000000A08E00F4981ED010A04E00D4981EDC7
:103E9000020A00E000BF00BF7047052800DD704740
:103EA00039B9084A127B012383409A43054B1A73A0
:103EB00006E0044A127B012383401A43014B1A7324
:103EC00000BFECE7FC06002040EA01039B0703D09B
:103ED00009E008C9121F08C0042AFAD203E011F849
:103EE000013B00F8013B521EF9D270472DE9FE4F0D
:103EF000804681EA0300C00F0C46009021F000418B
:103F000023F00045B8EB0200A94105D24046214606
:103F100090461C460B46024623F00040104347D013
:103F2000270DC7F30A00C3F30A510290401A01900B
:103F300040286BDAC3F3130040F4801B00989246CC
:103F400020B10023D2EB030A63EB0B0B0198594617
:103F5000C0F14002504600F097F906460D46504623
:103F60005946019A00F0AFF910EB080061410024B6
:103F700087EA115284EAE7731A4340D0009A62B389
:103F8000019A012A4FEA075215DC001B61EB02017E
:103F90004FF0004202EA0752CDE90042001C41F511
:103FA000801132462B4600F0AFF903B0BDE8F08F28
:103FB00040462146F9E7001B61EB0201001C41F578
:103FC000801300185B412018A2F5001747EB03018E
:103FD00040EAD570B6196D4111E06D084FEA36061A
:103FE00045EAC0754FEA0752001B61EB0201001C55
:103FF00041F5801149084FEA30000019514132461D
:104000002B4603B0BDE8F04F00F06FB900980122D5
:1040100040000023D0EB020263EBE07300982146DE
:104020004FEAE074B8EB000061EB0401E9E783F0CC
:1040300000435BE781F0004158E72DE9FE4F81EA3C
:10404000030404F0004421F0004100944FF0000B01
:1040500023F0004350EA01045ED052EA03045BD02F
:10406000C3F30A54C1F30A552C44A4F2F334019467
:10407000A0FB0254C1F3130141F48011C3F31303F5
:1040800043F4801301FB024400FB034E840A970AA9
:1040900044EA815447EA8357A4FB076802958D0AD6
:1040A00005FB07854FEA932C04FB0C542705029D62
:1040B0004FEA065847EA1637B5EB08056EEB070CD2
:1040C000870E920E47EA811742EA8312A7FB02018C
:1040D000B6EB0B0164EB00042B0D43EA0C335E18C6
:1040E00044EB1C50DA465146E7FB0201C5F31304CA
:1040F0004FEA0B3343EA14534FEA0432019C43EA7C
:104100000603A4F10C040294009CCDE900B400F075
:10411000FBF803B0BDE8F08F00200146F9E72DE978
:10412000F04D81EA030404F0004B21F000451446F1
:104130004FF0000A23F0004150EA050220D054EA73
:1041400001021DD0C5F30A570246C5F31303C1F39C
:104150001300C1F30A5640F4801543F48013A7EB13
:104160000608101BD64608F2FD3873EB050002D393
:1041700008F1010801E092185B41B8F1000F03DA81
:1041800000200146BDE8F08D00204FF48011064666
:1041900084460EE0171B73EB050705D3121B63EB78
:1041A000050306434CEA010C49084FEA3000921817
:1041B0005B4150EA0107EDD152EA030012D082EAD6
:1041C000040083EA0501084305D0101BAB4106D269
:1041D0000122002306E000224FF0004302E06FF0CE
:1041E000010253101AEB06004CEB085110EB0A00C9
:1041F00041EB0B01BDE8F04D00F077B80EB5C10FF3
:1042000080EAE0700844CA07002140F233438DE899
:104210000E000A460B4600F077F803B000BD70B5FB
:10422000C1F30A5201F000450024C1F3130140F22A
:10423000FF3341F480119A4201DA002070BD40F250
:1042400033439A42A2F2334203DC524200F02BF88D
:1042500000E090402C43F1D0404270BD30B50B4699
:10426000014600202022012409E021FA02F59D42A6
:1042700005D303FA02F5491B04FA02F52844151E7A
:10428000A2F10102F1DC30BD202A04DB203A00FA61
:1042900002F1002070479140C2F1200320FA03F39D
:1042A000194390407047202A04DB203A21FA02F09B
:1042B0000021704721FA02F3D040C2F12002914060
:1042C000084319467047202A06DBCB17203A41FAEB
:1042D00002F043EAE07306E041FA02F3D040C2F193
:1042E0002002914008431946704710B5141E73F11F
:1042F000000408DA401C41F1000192185B411A43A6
:1043000001D120F0010010BD2DE9F04D92469B46F1
:1043100011B1B1FA81F202E0B0FA80F22032904697
:10432000FFF7B2FF04460F4640EA0A0041EA0B01DC
:1043300053465A46084313D0114653EA010019D098
:10434000C8F140025046FFF7AEFF05460E46504604
:1043500059464246FFF798FF084305D0012004E084
:1043600020463946BDE8F08D0020054346EAE07658
:104370002C4337430A986305E40AA0EB08000022A7
:10438000FD0A44EA47540A3002D500200146E9E715
:10439000010510196941DDE9084500196941BDE8C9
:1043A000F04DA2E7064C074D06E0E06840F001033F
:1043B00094E8070098471034AC42F6D3FBF7E8FEC8
:1043C00060480008804800080FB4054B10B503A9E9
:1043D000044A029800F018F810BC5DF814FB0000C5
:1043E0005D0400081C00002002E008C8121F08C17C
:1043F000002AFAD170477047002001E001C1121F66
:10440000002AFBD1704700002DE9FF4F89B09B4681
:104410000446002506E025280BD05A460B99904704
:10442000641C6D1C20780028F5D10DB02846BDE82D
:10443000F08F0027B8460122474900E0074314F8EF
:10444000013F203B02FA03F00842F7D120782E28E2
:1044500019D114F8010F47F004072A280ED06FF085
:104460002F022078A0F1300109290CD808EB88012F
:1044700002EB410100EB0108641CF2E70A98641C9E
:1044800050F8048B0A9020780028CED0642808D0F9
:10449000692806D075281ED05A460B9990476D1C86
:1044A00058E00A994FF00A0901C90A91002802DA76
:1044B00040422D2102E0390504D52B218DF8201032
:1044C000012103E0F90704D02021F7E78A4608AE6E
:1044D0000DE00021FAE70A994FF00A0901C90A9193
:1044E000F7E74946FFF7BAFE303106F8011D00280C
:1044F000F7D1ADEB060000F12009780701D44FF0A9
:104500000108C84502DDA8EB090000E00020804654
:10451000002706E008A85A46C05D0B9990476D1C1D
:104520007F1C5745F6DB04E030205A460B99904734
:104530006D1CB8F10001A8F10108F5DC05E016F8E2
:10454000010B5A460B9990476D1CB9F10001A9F176
:104550000109F4DC641C65E709280100FF005EBC6A
:10456000E2613FDD83C29C7E20A3FD1F419DC321EC
:104570007FFCA2401E5F01E3BD3E6082DC237D9F85
:10458000C1421CFEA0E1BF5D0380DE3C62BEE002D2
:104590005CDF81633D7C22C09E1D43A1FF4618FA6B
:1045A000A427799BC584DA3866E5BB5907DB8567A4
:1045B00039BAE406581947A5FB7826C49A653BD951
:1045C00087045AB8E6A7F91B45C6987A24F8A6448A
:1045D0001A99C7257B3A6486D85B05E7B98CD23037
:1045E0006EEDB3510F4E10F2AC2F7193CD114FAD54
:1045F000F3702ECC92D38D6F31B2EC0E50AFF1131D
:104600004DCE90722C6D33D18F0C52B0EE326C8E39
:10461000D0530DEFB1F0AE4C1291CF2D73CA9476FA
:1046200028ABF517490856B4EA6937D58B5709EB1B
:10463000B536688AD495CB2977F4AA4816E9B755D8
:104640000B88D6346A2B7597C94A14F6A8742AC801
:1046500096154BA9F7B6E80A54D7896B35000000C8
:10466000891112239B322446AD573665BF74488C9E
:10467000C19D5AAFD3BE6CCAE5DB7EE9F7F8811065
:10468000080193331A22A5562C47B7753E64C99C7E
:10469000408DDBBF52AEEDDA64CBFFF976E8022144
:1046A0008B30100299132667AF763444BD554AAD5E
:1046B000C3BC588ED19F6EEBE7FA7CC8F5D9833125
:1046C0000A2091121803A7772E66B5543C45CBBD3E
:1046D00042ACD99E508FEFFB66EAFDD874C9044204
:1046E0008D5316619F702004A9153227BB364CCE1E
:1046F000C5DF5EEDD7FC6888E1997AABF3BA8552E5
:104700000C4397711E60A1142805B3373A26CDDEFD
:1047100044CFDFFD56ECE9986089FBBB72AA0663C3
:104720008F7214409D512225AB343006B9174EEFDD
:10473000C7FE5CCCD5DD6AA9E3B8788AF19B8773A4
:104740000E6295501C41A3352A24B1163807CFFFBD
:1047500046EEDDDC54CDEBB962A8F99A708B088483
:1047600081951AA793B62CC2A5D33EE1B7F04008B5
:10477000C919522BDB3A644EED5F766DFF7C89944C
:1047800000859BB712A6ADD224C3BFF136E0C11895
:104790004809D33B5A2AE55E6C4FF77D7E6C0AA52B
:1047A00083B4188691972EE3A7F23CC0B5D1422975
:1047B000CB38500AD91B666FEF7E744CFD5D8BB50C
:1047C00002A499961087AFF326E2BDD034C1C33955
:1047D0004A28D11A580BE77F6E6EF55C7C4D0CC6EB
:1047E00085D71EE597F42880A1913AA3B3B2444A35
:1047F000CD5B5669DF78600CE91D722FFB3E8DD6CC
:1048000004C79FF516E4A9902081BBB332A2C55A14
:104810004C4BD7795E68E11C680DF33F7A2E0EE7AA
:1048200087F61CC495D52AA1A3B03882B193466BF4
:10483000CF7A5448DD59622DEB3C700EF91F8FF78B
:1048400006E69DD414C5ABB122A0B9923083C77BD4
:104850004E6AD5585C49E33D6A2CF11E780F000082
:104860008048000800000020DC000000E843000849
:104870005C490008DC000020A40A0000F84300089E
:1048800000000000007A030A0000000000000000A1
:1048900001020304060708090000000000000000F0
:1048A000000000003333B33F295C8F3D000000005F
:1048B00000000000000000000000000000000000F8
:1048C0003333B33F295C8F3D00000000000000003F
:1048D0000000000000000000000000003333B33F80
:1048E000295C8F3D00000000000000000000000077
:1048F00000000000000000003333B33F295C8F3D0F
:1049000000000000000000000000000000000000A7
:10491000000000000000000000000004000400048B
:104920000004000000000000000000000000000083
:104930000000010203040102030406070809000045
:104940000000000000000000000000000000000067
:0C495000000000000100FFFF000000005C
:040000050800018965
:00000001FF
